{
  "_format": "hh-sol-artifact-1",
  "contractName": "GumballMachine",
  "sourceName": "contracts/gumball.sol",
  "abi": [
    {
      "inputs": [
        {
          "internalType": "uint256",
          "name": "_balls",
          "type": "uint256"
        }
      ],
      "stateMutability": "nonpayable",
      "type": "constructor"
    },
    {
      "inputs": [
        {
          "internalType": "uint256",
          "name": "_balls",
          "type": "uint256"
        }
      ],
      "name": "addFreshGumballs",
      "outputs": [],
      "stateMutability": "nonpayable",
      "type": "function"
    },
    {
      "inputs": [],
      "name": "getGumball",
      "outputs": [],
      "stateMutability": "nonpayable",
      "type": "function"
    },
    {
      "inputs": [],
      "name": "getNumberGumballs",
      "outputs": [
        {
          "internalType": "uint256",
          "name": "",
          "type": "uint256"
        }
      ],
      "stateMutability": "view",
      "type": "function"
    }
  ],
  "bytecode": "0x608060405234801561001057600080fd5b506040516104413803806104418339818101604052810190610032919061007a565b80600081905550506100a7565b600080fd5b6000819050919050565b61005781610044565b811461006257600080fd5b50565b6000815190506100748161004e565b92915050565b6000602082840312156100905761008f61003f565b5b600061009e84828501610065565b91505092915050565b61038b806100b66000396000f3fe608060405234801561001057600080fd5b50600436106100415760003560e01c80632e111e231461004657806375738a4414610062578063d18a99541461006c575b600080fd5b610060600480360381019061005b9190610189565b61008a565b005b61006a6100e8565b005b610074610145565b60405161008191906101c5565b60405180910390f35b600081036100cd576040517f08c379a00000000000000000000000000000000000000000000000000000000081526004016100c49061023d565b60405180910390fd5b806000808282546100de919061028c565b9250508190555050565b600080541161012c576040517f08c379a00000000000000000000000000000000000000000000000000000000081526004016101239061030c565b60405180910390fd5b60008081548092919061013e9061032c565b9190505550565b60008054905090565b600080fd5b6000819050919050565b61016681610153565b811461017157600080fd5b50565b6000813590506101838161015d565b92915050565b60006020828403121561019f5761019e61014e565b5b60006101ad84828501610174565b91505092915050565b6101bf81610153565b82525050565b60006020820190506101da60008301846101b6565b92915050565b600082825260208201905092915050565b7f4e6f2042616c6c73000000000000000000000000000000000000000000000000600082015250565b60006102276008836101e0565b9150610232826101f1565b602082019050919050565b600060208201905081810360008301526102568161021a565b9050919050565b7f4e487b7100000000000000000000000000000000000000000000000000000000600052601160045260246000fd5b600061029782610153565b91506102a283610153565b92508282019050808211156102ba576102b961025d565b5b92915050565b7f4e6f2067756d62616c6c73206c65667400000000000000000000000000000000600082015250565b60006102f66010836101e0565b9150610301826102c0565b602082019050919050565b60006020820190508181036000830152610325816102e9565b9050919050565b600061033782610153565b91506000820361034a5761034961025d565b5b60018203905091905056fea26469706673582212202f8ae464ab44ce350dc510edd6d5dc8bb1816da358d8a601033873be1107f4c864736f6c63430008180033",
  "linkReferences": {},
  "deployedLinkReferences": {}
}